:020000040800F2
:10000000F0D5002089910008690800086B080008F5
:100010006F08000873080008770800080000000057
:100020000000000000000000000000007B08000845
:100030007D080008000000007F0800088108000813
:10004000A3910008A3910008A3910008A3910008C0
:10005000A3910008A3910008A3910008A3910008B0
:10006000A3910008A3910008A3910008A3910008A0
:10007000A3910008A3910008A3910008A391000890
:10008000A3910008A3910008A3910008A391000880
:10009000A3910008A3910008A3910008A391000870
:1000A000A3910008A3910008A3910008A391000860
:1000B000A3910008738C0008C9FF0008A3910008F1
:1000C000A3910008A3910008A3910008A391000840
:1000D000A3910008FD900008A3910008FF8A000882
:1000E000A3910008A3910008A3910008A391000820
:1000F000A3910008A3910008A3910008A391000810
:10010000A3910008E95E0008198E0008A391000879
:10011000A3910008A3910008A3910008A3910008EF
:10012000A3910008A3910008A3910008A3910008DF
:1001300000F002F800F0B0F80AA090E8000C824449
:100140008344AAF10107DA4501D100F0A5F8AFF226
:10015000090EBAE80F0013F0010F18BFFB1A43F0A5
:1001600001031847200A0200400A02000A444FF027
:10017000000C10F8013B13F0070408BF10F8014B06
:100180001D1108BF10F8015B641E05D010F8016B4B
:10019000641E01F8016BF9D113F0080F1EBF10F8AF
:1001A000014BAD1C0C1B09D16D1E58BF01F801CBD2
:1001B000FAD505E014F8016B01F8016B6D1EF9D555
:1001C0009142D6D37047000000230024002500266A
:1001D000103A28BF78C1FBD8520728BF30C148BFAA
:1001E0000B6070476E2912F0A787702913F08D807D
:1001F000662915F00E87652915F00B87672915F01C
:1002000008876129AFF3008003681B0A28BF41F00B
:100210008001692912F05487642912F051877529E9
:1002200012F04E876F2913F01A80782913F0598045
:10023000E92913F07D83E42913F07A83F52913F07B
:100240007783EF2913F01780F82913F0588003689B
:10025000DB0928BF41F08001632913F0348373293F
:1002600013F03983E32913F05783F32913F05C83E8
:10027000002070471FB513F0A1FE040000200021EC
:1002800014F09CFE401C60600020002114F0ACFEC5
:10029000E0601FBD10B510BD13F06AFE1146FFF7F8
:1002A000E9FF00F0E6F813F03FFF03B4FFF7F2FFB9
:1002B00003BC08F0C9FE0000F8B505460E4614461A
:1002C0001F4604B9F8BD2819401E82B23346314694
:1002D0002846009703F0F7FB00BFF3E72DE9F05F36
:1002E0000746884616469A4640F2C32070434FF4AC
:1002F0007A71B0FBF1F000F1010906FB06F000EBAA
:10030000560B344671040A0CB91B88B25346414659
:10031000FFF7D2FF012535E005FB05F004FB0400E3
:1003200058451AD94C4517D96B1E5B041A0C08EBBB
:10033000040399B27B1B5B1C98B25346FFF7BCFFCA
:100340006B1E5B041A0CA8EB040399B27B1B5B1CAD
:1003500098B25346FFF7B0FF641E63041A0C08EB13
:10036000050399B23B1B98B25346FFF7A5FF630400
:100370001A0CA8EB050399B23B1B98B25346FFF742
:100380009BFF6D1C4D45C7D9BDE8F09F02468A42D0
:1003900002DD501A80B27047881A80B2FBE72DE95F
:1003A000FF4F85B080468946129F0020039002903F
:1003B000B84507DB0798B84204DBB94502DB08986B
:1003C000B84202DA09B0BDE8F08F0798A0EB080444
:1003D0000898A0EB0905CDF80480CDF80090002C1A
:1003E00002DD4FF0010A06E014B94FF0000A02E006
:1003F0004FF0FF3A6442002D02DD4FF0010B06E0A2
:1004000015B94FF0000B02E04FF0FF3B6D42AC42DC
:1004100001DD264600E02E460020049023E0009AED
:1004200091B2019A90B23A46139BFFF757FF039897
:10043000204403900298284402900398B04205DDBE
:100440000398801B03900198504401900298B04299
:1004500005DD0298801B0290009858440090049893
:10046000401C80B20490711C04988842D7DD00BF04
:10047000A8E788B000250027A84600244FF004090B
:1004800008F072FD4FF4A06008F09EFE4FF4E130DA
:1004900008F0E8FD00F0E6FA00F00AFB00F0D6FFF5
:1004A00003F04EFEC3490868804700200BF043FA72
:1004B0000EF0B2FDC04901220868C0A10CF03BFF5C
:1004C000BD4901224868BEA10CF035FF10F07AFF4B
:1004D0004FF47840BB49088015E0BBA010210B46C3
:1004E000C822CDE9001032211E2003F046FDC820AD
:1004F00008F077FD4FF6FF704223F0223221009082
:100500001E2003F0E0FA10F07EFD0028E5D141F650
:100510001F4141F2873008F077FB08F015F82844B6
:10052000C5B208F06FF82844C5B23DB1A9A012F0D9
:1005300043FD4FF47A7008F054FD00BF00BF002067
:100540001021ABA20B46CDE900210290C8220A215E
:100550001E2010F064FE00201021AAA20B46CDE957
:1005600000210290C8221E21084610F058FE0020EB
:100570001021ABA20B46CDE900210290C822322106
:100580001E2010F04CFE00201021A8A20B46CDE941
:1005900000210290C82246211E2010F040FE0020BB
:1005A0001021A7A20B46CDE900210290C8225A21B2
:1005B0001E2010F034FEA5484088401F83B2A34897
:1005C0000088143882B27221132003F02AFB1F2006
:1005D0007C490880002010219DA20B46CDE9002116
:1005E0000290C822CF21602010F019FE4FF064085D
:1005F00000BFDEE0002000F075FA0646042E0CD1A4
:100600006C4890F8300000F0800030B907F0FFF936
:100610004FF6FF7000F005FF91E766484168002043
:100620008847644890F8200000F0800000287AD0C5
:10063000032008F0D6FC4FF000085E48818983480B
:100640000088163881425BDA5A488089162857DBC1
:100650005848C18A7D484088C01F8142F3DA554816
:10066000C08A7528F3DBBDF810004FF6FF71884291
:1006700007D150488089ADF810004E48C08AADF8C7
:1006800012001F200221DFF82CC1CDE90010BCF8B8
:100690001630BCF80C20BDF81210BDF81000FFF7A2
:1006A0007EFE44488089ADF810004248C08AADF80B
:1006B0001200C82C72DA24B3601E674901EB800077
:1006C000B0F902003B49C98A884267D0601E62497E
:1006D00001EB8000B0F900003649898988425DD07D
:1006E0003448808900B25C4901EB840108803148BC
:1006F000C08A00B2584901EB84014880601C84B272
:100700004CE02C48808900B2534901EB84010880F9
:100710002848C08A00B2504901EB84014880601C1F
:1007200084B23BE0FFE74FF6FF70ADF8100008F130
:10073000010000F0FF080A2008F053FC781CC7B243
:10074000B8F1280F2AD1D4B105A84B46062221467C
:100750000090414812F082FA9DF814103FA012F068
:100760002BFC00241F201749088005A810210B46E8
:10077000C822CDE900105A21662003F0FEFB4FF697
:10078000FF70009031484088801F83B22F48008856
:10079000153882B27321142003F095F91E2F08D169
:1007A00000273048006808B9012000E000202D49EA
:1007B00008601FE738000020D4000020303A000015
:1007C000313A000016000020466F6E7420457272A8
:1007D0006F722100D5FDD4DAD7D4B6AFD6D8C6F41F
:1007E000455350383236362E2E2E0D0A00000000AA
:1007F000D5BDBDA253544D3332463130335A4554E2
:1008000036000000BBF9D3DA53544D3332B5C4CAB5
:10081000D6D0B4CAE4C8EBCAB6B1F0CFB5CDB300F8
:10082000BCC6BFC63230312F32000000CDF5C9D072
:10083000C3F120D2A6D4B620D6DCECFBD3EE000068
:10084000CAB6B1F0BDE1B9FB3A0000004406002091
:10085000CAD6D0B4C7F800002403002025630D0ACF
:100860000000000094812142704700BFFEE700BFF6
:10087000FEE700BFFEE700BFFEE770477047704726
:10088000704700000CB50020019000906C48006893
:1008900040F480306A49086000BF6948006800F48D
:1008A000003000900198401C0190009818B9019800
:1008B000B0F5A06FF1D16248006800F4003010B1CB
:1008C0000120009001E0002000900098012843D111
:1008D0005C48006840F010005A490860084600680B
:1008E00020F0030008600846006840F0020008603D
:1008F0005348406852494860084640684860084686
:10090000406840F4806048600846406820F47C10ED
:1009100048600846406840F4E810486008460068AF
:1009200040F08070086000BF4548006800F000702B
:100930000028F9D04248406820F003004049486050
:100940000846406840F00200486000BF3C484068EC
:1009500000F00C000828F9D10CBD10B5FFF792FF8C
:1009600010BD10B53648006840F0010034490860F9
:1009700008464068344908403149486008460068E4
:10098000324908402E4908600846006820F480205B
:1009900008600846406820F4FE0048604FF41F00DD
:1009A0008860FFF7DAFF4FF000602949086010BD4A
:1009B00010B5002100200022214B5B6803F00C01E0
:1009C00021B1042906D0082928D107E0214B224C67
:1009D000236027E01F4B204C236023E0184B5B680B
:1009E00003F47010164B5B6803F48032022303EBB0
:1009F000904022B9194B4343174C23600DE0104B34
:100A00005B6803F4003323B1144B4343124C23605F
:100A100003E0104B4343104C236003E00D4B0E4C9E
:100A2000236000BF00BF064B5B68C3F303130C4C8D
:100A3000E15C094B1B68CB40074C236010BD0000F4
:100A400000100240002002400000FFF8FFFFF6FE09
:100A500008ED00E000127A000000002000093D00CF
:100A60000400002008B50121482009F03DFA2020AB
:100A7000ADF8000010208DF8030003208DF802006F
:100A80006946094808F074FF2021074809F01DF85D
:100A90002020ADF800006946044808F069FF2021D5
:100AA000024809F012F808BD000C0140001801408E
:100AB00008B50121442009F017FA1C20ADF8000008
:100AC00048208DF803006946354808F051FF0120A1
:100AD000ADF8000028208DF803006946314808F081
:100AE00047FF08BD10B5044614B101202E49087017
:100AF0002D480078002837D01021294808F0CBFF76
:100B000078B10821264808F0C6FF50B104212448D6
:100B100008F0C1FF28B10121224808F0BCFF0128DC
:100B200022D10A2008F05DFA00201F490870102128
:100B30001B4808F0B0FF08B9012010BD0821184873
:100B400008F0A9FF08B90220F7E70421144808F0CB
:100B5000A2FF08B90320F0E70121124808F09BFF2B
:100B600001281BD10420E8E710210D4808F093FF6D
:100B7000012813D108210A4808F08DFF01280DD162
:100B80000421074808F087FF012807D10121054803
:100B900008F081FF10B90120034908700020CCE75C
:100BA000001801400008014014000020FE490880A0
:100BB0007047FD49891C0880704708B5FA48801CB9
:100BC00000880090BDF8000008BDF74A1080921C14
:100BD0001180704710B504462046FFF7E7FF052057
:100BE00008F0DBF9FFF7E9FF10BDF0480089EE4996
:100BF00008807047EC49891C0880704730B5014671
:100C000001F01F04C1F34513CA0AE50205EB4315C1
:100C10001544A8B230BD00BF011EA0F10102D0B240
:100C2000FAD1704700B502460B46E048808841F68D
:100C30006311884247D1DD488079A8B9DB48008834
:100C4000401E801A82B2D9494889FFF7AFFF0020C1
:100C5000FFF7AFFF0020FFF7ACFF1012FFF7A9FF6F
:100C6000D0B2FFF7A6FF16E0D0494889FFF79EFFF4
:100C70001012FFF79EFFD0B2FFF79BFFCB49098808
:100C8000491EC1F30F20FFF794FFC8490978491E98
:100C9000C8B2FFF78EFFC5498889FFF787FF181292
:100CA000FFF787FFD8B2FFF784FFC0494988491E84
:100CB000C1F30F20FFF77DFFBC498978491EC8B2F8
:100CC000FFF777FF3AE0B948808845F21051884233
:100CD00020D1B6494889FFF769FF1012FFF769FF75
:100CE000B2494989491C88B2FFF760FFD0B2FFF7CB
:100CF00060FFAE498889FFF759FF1812FFF759FFC7
:100D0000AA498989491C88B2FFF750FFD8B2FFF77A
:100D100050FF13E0A5494889FFF748FF1012FFF77D
:100D200048FFD0B2FFF745FFA0498889FFF73EFF93
:100D30001812FFF73EFFD8B2FFF73BFF00BD2DE9C9
:100D4000F04105460E4699480088A84203DD9748C1
:100D50004088B04202DC0020BDE8F08131462846E0
:100D6000FFF760FF9148808845F21051884204D116
:100D70004FF43850FFF71AFF02E02E20FFF716FF5E
:100D8000FFF71BFF04468948808841F663118842BB
:100D900001D12046E0E7FFF710FF0446FFF70DFF03
:100DA0008046E7B24FF6FF7000EA0727E012C00264
:100DB000B91240EA411040EAE820CDE700B57B488F
:100DC000808845F21051884204D14FF42450FFF737
:100DD000EDFE02E02920FFF7E9FE00BD00B57348F3
:100DE000808845F21051884204D14FF42050FFF71B
:100DF000DDFE02E02820FFF7D9FE00BD70B50446F5
:100E00000023002669488079012805D16748808839
:100E100041F66311884208D164488079F0B963488B
:100E2000808841F66311884218D1082C15D2DFE87A
:100E300004F00406080A0C0E101206240DE0072424
:100E40000BE0042409E0052407E0012405E0002468
:100E500003E0032401E0022400BF00BF082C1CD2E1
:100E6000DFE804F00406090C0F12151800BF14E0A7
:100E700043F0800311E043F040030EE043F0C00371
:100E80000BE043F0200308E043F0600305E043F08B
:100E9000A00302E043F0E00300BF00BF43488088A6
:100EA00045F21051884202D14FF4585600E03626E0
:100EB0003E48808849F24131884205D03B488088CD
:100EC00047F28971884201D143F008031946304640
:100ED000FFF77BFE3548808841F6631188421DD0BC
:100EE00003F0200068B131480088304949888842C1
:100EF00014DA2E48058840882C4908800846458029
:100F00000CE02A48008829494988884206DD27489C
:100F10000588408825490880084645802348808800
:100F200045F21051884257D120494889FFF73EFECB
:100F30000020FFF73EFE1D494989491C88B2FFF792
:100F400035FE0020FFF735FE18494989891C88B213
:100F5000FFF72CFE15490988491EC1F30F20FFF742
:100F600028FE12494989C91C88B2FFF71FFE0F49A4
:100F70000978491EC8B2FFF71CFE0C498889FFF7A3
:100F800015FE0020FFF715FE08498989491C88B223
:100F9000FFF70CFE0020FFF70CFE04498989891C2D
:100FA00088B2FFF703FE03E0FE07006C4406002052
:100FB000FE494988491EC1F30F20FFF7FAFDFB499E
:100FC0008989C91C88B2FFF7F1FDF8498978491E63
:100FD000C8B2FFF7EEFD2DE0F4494889FFF7E6FDC2
:100FE0000020FFF7E6FD0020FFF7E3FDEF49098849
:100FF000491EC1F30F20FFF7DCFDEC490978491EBB
:10100000C8B2FFF7D6FDE9498889FFF7CFFD002078
:10101000FFF7CFFD0020FFF7CCFDE4494988491ECA
:10102000C1F30F20FFF7C5FDE0498978491EC8B21A
:10103000FFF7BFFD70BD30B504460D46294620467A
:10104000FFF7F0FDFFF7D1FDD9480088D9490880A6
:1010500030BD10B503460C46D448808845F2105187
:10106000884220D1D1494889FFF7A0FD1812FFF727
:10107000A0FDCE494989491C88B2FFF797FDD8B237
:10108000FFF797FDC9498889FFF790FD2012FFF708
:1010900090FDC6498989491C88B2FFF787FDE0B2F7
:1010A000FFF787FD42E0C148808841F6631188421E
:1010B00028D1BE48807920B9BC480088401EC01A9B
:1010C00083B2BA494889FFF771FD1812FFF771FD25
:1010D000D8B2FFF76EFD1812FFF76BFDD8B2FFF71D
:1010E00068FDB2498889FFF761FD2012FFF761FDB5
:1010F000E0B2FFF75EFD2012FFF75BFDE0B2FFF705
:1011000058FD13E0A9494889FFF750FD1812FFF771
:1011100050FDD8B2FFF74DFDA4498889FFF746FD81
:101120002012FFF746FDE0B2FFF743FD9F4800891C
:10113000A049891E0880881C028010BD2DE9F04757
:101140000446BE20FFF732FD0520FFF732FD2046A2
:1011500014F058F807464FF06632974B14F0A2F897
:10116000054614F00BF81FFA80F94846FFF721FDF9
:101170000120FFF71EFDFF20FFF71BFD0020FFF7FA
:1011800018FD0020FFF715FDBDE8F08710B50446F7
:1011900086488471002C45D1F020844908804FF4A2
:1011A000A07048800846808845F21051884210D1CE
:1011B0004FF430507D4908814FF4285048814FF456
:1011C0002C5088814FF4F07008804FF448704880AC
:1011D0001AE07648808841F6631188420DD12C20B0
:1011E000724908812B2048812A2088814FF4F070B1
:1011F00008804FF44870488006E02C206B49088135
:101200002A2048812B2088816848808845F2103147
:1012100088424CD14FF4A070644908804FF4F070BC
:10122000488044E04FF4A07060490880F020488076
:101230000846808845F21051884210D14FF4305052
:101240005A4908814FF4285048814FF42C50888126
:101250004FF4487008804FF4F07048801AE053480B
:10126000808841F6631188420DD12C204F490881B6
:101270002A2048812B2088814FF4487008804FF441
:10128000F070488006E02C20484908812A204881D7
:101290002B2088814548808845F21031884206D14C
:1012A0004FF4F070414908804FF4A070488000204E
:1012B000FFF7A4FD10BDF0B504460D46A018401E72
:1012C00086B2E818401E87B23848808841F663111C
:1012D000884231D13548807901282DD033480088A3
:1012E000801A001B84B2E818401E83B22F49488937
:1012F000FFF75CFC2012FFF75CFCE0B2FFF759FC43
:10130000A118491EC1F30F20FFF753FCA118491E75
:10131000C8B2FFF74EFC25498889FFF747FC281221
:10132000FFF747FCE8B2FFF744FC1812FFF741FC57
:10133000D8B2FFF73EFC73E01C48808845F210519C
:1013400088424DD119494889FFF730FC2012FFF738
:1013500030FC16494989491C88B2FFF727FCE0B2E6
:10136000FFF727FC11494989891C88B2FFF71EFC49
:101370003012FFF71EFC0D494989C91C88B2FFF7DE
:1013800015FCF0B2FFF715FC08498889FFF70EFC41
:101390002812FFF70EFC05498989491C88B2FFF71E
:1013A00005FCE8B2FFF705FC004907E04406002011
:1013B000160000200008006C666604408989891CBC
:1013C00088B2FFF7F3FB3812FFF7F3FBFE49898978
:1013D000C91C88B2FFF7EAFBF8B2FFF7EAFB1FE08F
:1013E000F9494889FFF7E2FB2012FFF7E2FBE0B280
:1013F000FFF7DFFB3012FFF7DCFBF0B2FFF7D9FBA2
:10140000F1498889FFF7D2FB2812FFF7D2FBE8B237
:10141000FFF7CFFB3812FFF7CCFBF8B2FFF7C9FBA1
:10142000F0BD70B504460026E7480588408845436E
:1014300000210846FFF7F6FBFFF7D7FB00BF02E0ED
:10144000E2480480761CAE42FAD370BD00B59FB06E
:101450000121080208F03BFD01214FF4B47008F0AF
:1014600043FD0120ADF8780010208DF87B000320AB
:101470008DF87A001EA9D64808F07AFA4CF233703B
:10148000ADF8780018208DF87B0003208DF87A00E5
:101490001EA9D04808F06CFA4FF68070ADF87800BD
:1014A00018208DF87B0003208DF87A001EA9CA4809
:1014B00008F05EFA41F20100ADF8780018208DF8CE
:1014C0007B0003208DF87A001EA9C44808F050FA6A
:1014D00001200890002009900F200A9000200B9016
:1014E0000C900D900E90019002900320039000202C
:1014F000049005900690079006200F900020109011
:1015000011901020129000201390159014901690B6
:1015100017904FF480501890002019904FF480409D
:101520001A9000201B9008A81C9001A81D900FA8DD
:1015300007F004FF0121062008F068F8322007F0C8
:1015400050FDD320FFF732FBFFF737FB9E49888021
:10155000FFF733FB9C498880FFF72FFB9A4988806F
:10156000084680884FF6FF7101EA0020964988807E
:10157000FFF723FB944989880843934988800846EC
:10158000808849F2413188427DD00420FFF70EFB6C
:10159000FFF713FB8C498880FFF70FFB8A4988808F
:1015A000FFF70BFB88498880084680884FF6FF715B
:1015B00001EA002084498880FFF7FFFA8249898880
:1015C0000843814988800846808848F25251884201
:1015D00003D147F289707C4988807B48808847F234
:1015E00089718842D0D0D420FFF7E0FAFFF7E5FAFE
:1015F00075498880FFF7E1FA73498880FFF7DDFAC3
:1016000071498880084680884FF6FF7101EA002002
:101610006D498880FFF7D1FA6B49898808436A4988
:1016200088800846808845F21031884262D0552172
:101630004FF47040FFF7C9FAAA214FF20100FFF7FB
:10164000C4FA52214FF20200FFF7BFFA08214FF20D
:101650000300FFF7BAFA01214FF20400FFF7B5FAD1
:101660004FF44540FFF7A2FAFFF7A7FA56498880E2
:10167000084680884FF6FF7101EA002052498880B1
:101680004CF2015000E035E0FFF790FAFFF795FAD1
:101690004D49898808434C498880052007F0A1FC02
:1016A0004948808845F21051884223D0A120FFF795
:1016B0007DFAFFF782FA44498880FFF77EFA4249B3
:1016C0008880084680884FF6FF7101EA00203E4975
:1016D0008880FFF772FA3C49898808433A49888034
:1016E0000846808845F26171884203D141F6631053
:1016F000354988803448818839A011F05DFC324832
:10170000808849F24131884272D1CF20FFF74EFAEA
:101710000020FFF74EFAC120FFF74BFA3020FFF709
:1017200048FAED20FFF742FA6420FFF742FA03205F
:10173000FFF73FFA1220FFF73CFA8120FFF739FA52
:10174000E820FFF733FA8520FFF733FA1020FFF780
:1017500030FA7A20FFF72DFACB20FFF727FA39204D
:10176000FFF727FA2C20FFF724FA0020FFF721FAD1
:101770003420FFF71EFA0220FFF71BFAF720FFF7CD
:1017800015FA2020FFF715FAEA20FFF70FFA0020DC
:10179000FFF70FFA0020FFF70CFAC020FFF706FA58
:1017A0001B20FFF706FAC120FFF700FA0120FFF720
:1017B00000FAC520FFF7FAF93020FFF7FAF93020D8
:1017C000FFF7F7F9C72014E0440600200008006C7A
:1017D000000C0140001401400018014000200140AD
:1017E000204C43442049443A25780D0A000000006B
:1017F000B7E0FFF7DBF9B720FFF7DBF93620FFF79B
:10180000D5F94820FFF7D5F93A20FFF7CFF9552051
:10181000FFF7CFF9B120FFF7C9F90020FFF7C9F9A9
:101820001A20FFF7C6F9B620FFF7C0F90A20FFF724
:10183000C0F9A220FFF7BDF9F220FFF7B7F90020A9
:10184000FFF7B7F92620FFF7B1F90120FFF7B1F94B
:10185000E020FFF7ABF90F20FFF7ABF92A20FFF7E5
:10186000A8F92820FFF7A5F90820FFF7A2F90E2014
:10187000FFF79FF90820FFF79CF95420FFF799F92B
:10188000A920FFF796F94320FFF793F90A20FFF705
:1018900090F90F20FFF78DF90020FFF78AF900205B
:1018A000FFF787F90020FFF784F90020FFF781F99F
:1018B000E120FFF77BF90020FFF77BF91520FFF708
:1018C00078F91720FFF775F90720FFF772F9112053
:1018D000FFF76FF90620FFF76CF92B20FFF769F986
:1018E0005620FFF766F93C20FFF763F90520FFF764
:1018F00060F91020FFF75DF90F20FFF75AF93F203C
:10190000FFF757F93F20FFF754F90F20FFF751F980
:101910002B20FFF74BF90020FFF74BF90020FFF7D2
:1019200048F90120FFF745F93F20FFF742F92A2047
:10193000FFF73CF90020FFF73CF90020FFF739F9E9
:101940000020FFF736F9EF20FFF733F91120FFF7FA
:101950002DF9782007F045FB2920FFF727F902F041
:10196000A6B8FE48808847F2897188427ED111204E
:10197000FFF71CF9782007F034FB3620FFF716F943
:101980000020FFF716F93A20FFF710F90520FFF7BE
:1019900010F9B220FFF70AF90C20FFF70AF90C2022
:1019A000FFF707F90020FFF704F93320FFF701F9EB
:1019B0003320FFF7FEF8B720FFF7F8F83520FFF7E0
:1019C000F8F8BB20FFF7F2F83220FFF7F2F8C0205A
:1019D000FFF7ECF80C20FFF7ECF8C220FFF7E6F871
:1019E0000120FFF7E6F8C320FFF7E0F81020FFF72B
:1019F000E0F8C420FFF7DAF82020FFF7DAF8C62075
:101A0000FFF7D4F80F20FFF7D4F8D020FFF7CEF877
:101A1000A420FFF7CEF8A120FFF7CBF8E020FFF7D6
:101A2000C5F8D020FFF7C5F80020FFF7C2F8022064
:101A3000FFF7BFF80720FFF7BCF80A20FFF7B9F857
:101A40002820FFF7B6F83220FFF7B3F84420FFF75D
:101A5000B0F84220FFF7ADF80620FFF7AAF80E20F5
:101A6000FFF7A7F81220FFF7A4F800E054E01420D5
:101A7000FFF79FF81720FFF79CF8E120FFF796F893
:101A8000D020FFF796F80020FFF793F80220FFF729
:101A900090F80720FFF78DF80A20FFF78AF8282032
:101AA000FFF787F83120FFF784F85420FFF781F81B
:101AB0004720FFF77EF80E20FFF77BF81C20FFF78A
:101AC00078F81720FFF775F81B20FFF772F81E2033
:101AD000FFF76FF82A20FFF769F80020FFF769F891
:101AE0000020FFF766F80020FFF763F8EF20FFF70C
:101AF00060F82B20FFF75AF80020FFF75AF8002073
:101B0000FFF757F80120FFF754F83F20FFF751F88F
:101B10002920FFF74BF822E79048808845F21031E2
:101B2000884240F07C87ED20FFF740F80120FFF766
:101B300040F8FE20FFF73DF8EE20FFF737F8DE20F3
:101B4000FFF737F82120FFF734F8F120FFF72EF8E0
:101B50000120FFF72EF8DF20FFF728F81020FFF70D
:101B600028F8C420FFF722F88F20FFF722F8C620BC
:101B7000FFF71CF80020FFF71CF8E220FFF719F828
:101B8000E220FFF716F8E220FFF713F8BF20FFF777
:101B90000DF8AA20FFF70DF8B020FFF707F80D2089
:101BA000FFF707F80020FFF704F80D20FFF701F812
:101BB0000020FEF7FEFF1120FEF7FBFF0020FEF7DE
:101BC000F8FF1920FEF7F5FF0020FEF7F2FF2120B5
:101BD000FEF7EFFF0020FEF7ECFF2D20FEF7E9FFF8
:101BE0000020FEF7E6FF3D20FEF7E3FF0020FEF7B2
:101BF000E0FF5D20FEF7DDFF0020FEF7DAFF5D204D
:101C0000FEF7D7FF0020FEF7D4FFB120FEF7CEFF8E
:101C10008020FEF7CEFF0020FEF7CBFF8B20FEF7E3
:101C2000C8FF0020FEF7C5FF9620FEF7C2FF002088
:101C3000FEF7BFFFB220FEF7B9FF0020FEF7B9FFA5
:101C40000020FEF7B6FF0220FEF7B3FF0020FEF7EC
:101C5000B0FF0320FEF7ADFF0020FEF7AAFFB32080
:101C6000FEF7A4FF0020FEF7A4FF0020FEF7A1FF6F
:101C70000020FEF79EFF0020FEF79BFF0020FEF7EE
:101C800098FF0020FEF795FF0020FEF792FF00204E
:101C9000FEF78FFF0020FEF78CFF0020FEF789FF84
:101CA0000020FEF786FF0020FEF783FF0020FEF7EE
:101CB00080FF0020FEF77DFF0020FEF77AFF002066
:101CC000FEF777FF0020FEF774FF0020FEF771FF9C
:101CD0000020FEF76EFF0020FEF76BFF0020FEF7EE
:101CE00068FF0020FEF765FF0020FEF762FF00207E
:101CF000FEF75FFFB420FEF759FF8B20FEF759FF78
:101D00000020FEF756FF9620FEF753FF0020FEF757
:101D100050FFA120FEF74DFF0020FEF74AFFB5203F
:101D2000FEF744FF0220FEF744FF0020FEF741FFCC
:101D30000320FEF73EFF0020FEF73BFF0420FEF7E6
:101D400038FF0020FEF735FFB620FEF72FFF0020FA
:101D5000FEF72FFF0020FEF72CFF01E044060020D5
:101D6000B720FEF723FF0020FEF723FF0020FEF739
:101D700020FF3F20FEF71DFF0020FEF71AFF5E2028
:101D8000FEF717FF0020FEF714FF6420FEF711FF97
:101D90000020FEF70EFF8C20FEF70BFF0020FEF761
:101DA00008FFAC20FEF705FF0020FEF702FFDC2055
:101DB000FEF7FFFE0020FEF7FCFE7020FEF7F9FEA6
:101DC0000020FEF7F6FE9020FEF7F3FE0020FEF75F
:101DD000F0FEEB20FEF7EDFE0020FEF7EAFEDC2031
:101DE000FEF7E7FE0020FEF7E4FEB820FEF7DEFE79
:101DF0000020FEF7DEFE0020FEF7DBFE0020FEF7EF
:101E0000D8FE0020FEF7D5FE0020FEF7D2FE00200F
:101E1000FEF7CFFE0020FEF7CCFE0020FEF7C9FE45
:101E2000BA20FEF7C3FE2420FEF7C3FE0020FEF713
:101E3000C0FE0020FEF7BDFE0020FEF7BAFEC12066
:101E4000FEF7B4FE2020FEF7B4FE0020FEF7B1FE40
:101E50005420FEF7AEFE0020FEF7ABFEFF20FEF79B
:101E6000A8FE0020FEF7A5FEC220FEF79FFE0A2076
:101E7000FEF79FFE0020FEF79CFE0420FEF799FE71
:101E80000020FEF796FEC320FEF790FE3C20FEF7F2
:101E900090FE0020FEF78DFE3A20FEF78AFE00201D
:101EA000FEF787FE3920FEF784FE0020FEF781FE54
:101EB0003720FEF77EFE0020FEF77BFE3C20FEF77B
:101EC00078FE0020FEF775FE3620FEF772FE002039
:101ED000FEF76FFE3220FEF76CFE0020FEF769FE73
:101EE0002F20FEF766FE0020FEF763FE2C20FEF793
:101EF00060FE0020FEF75DFE2920FEF75AFE00205E
:101F0000FEF757FE2620FEF754FE0020FEF751FE96
:101F10002420FEF74EFE0020FEF74BFE2420FEF7A5
:101F200048FE0020FEF745FE2320FEF742FE00207B
:101F3000FEF73FFE3C20FEF73CFE0020FEF739FE98
:101F40003620FEF736FE0020FEF733FE3220FEF785
:101F500030FE0020FEF72DFE2F20FEF72AFE002087
:101F6000FEF727FE2C20FEF724FE0020FEF721FEC0
:101F70002920FEF71EFE0020FEF71BFE2620FEF79E
:101F800018FE0020FEF715FE2420FEF712FE0020AA
:101F9000FEF70FFE2420FEF70CFE0020FEF709FEE0
:101FA0002320FEF706FE0020FEF703FEC420FEF706
:101FB000FDFD6220FEF7FDFD0020FEF7FAFD052085
:101FC000FEF7F7FD0020FEF7F4FD8420FEF7F1FD9B
:101FD0000020FEF7EEFDF020FEF7EBFD0020FEF7FF
:101FE000E8FD1820FEF7E5FD0020FEF7E2FDA42045
:101FF000FEF7DFFD0020FEF7DCFD1820FEF7D9FD1F
:102000000020FEF7D6FD5020FEF7D3FD0020FEF79E
:10201000D0FD0C20FEF7CDFD0020FEF7CAFD1720F5
:10202000FEF7C7FD0020FEF7C4FD9520FEF7C1FDB9
:102030000020FEF7BEFDF320FEF7BBFD0020FEF7FB
:10204000B8FDE620FEF7B5FD0020FEF7B2FDC52085
:10205000FEF7ACFD3220FEF7ACFD0020FEF7A9FD37
:102060004420FEF7A6FD0020FEF7A3FD6520FEF745
:10207000A0FD0020FEF79DFD7620FEF79AFD0020D2
:10208000FEF797FD8820FEF794FD0020FEF791FDF6
:10209000C620FEF78BFD2020FEF78BFD0020FEF70B
:1020A00088FD1720FEF785FD0020FEF782FD012048
:1020B000FEF77FFD0020FEF77CFDC720FEF776FDD2
:1020C0000020FEF776FD0020FEF773FD0020FEF7EE
:1020D00070FD0020FEF76DFDC820FEF767FD0020B3
:1020E000FEF767FD0020FEF764FD0020FEF761FDAE
:1020F0000020FEF75EFDC920FEF758FD0020FEF728
:1021000058FD0020FEF755FD0020FEF752FD00208F
:10211000FEF74FFD0020FEF74CFD0020FEF749FDC5
:102120000020FEF746FD0020FEF743FD0020FEF7ED
:1021300040FD0020FEF73DFD0020FEF73AFD0020A7
:10214000FEF737FD0020FEF734FD0020FEF731FDDD
:102150000020FEF72EFD0020FEF72BFDE020FEF70D
:1021600025FD1620FEF725FD0020FEF722FD1C2090
:10217000FEF71FFD0020FEF71CFD2120FEF719FDD4
:102180000020FEF716FD3620FEF713FD0020FEF7B7
:1021900010FD4620FEF70DFD0020FEF70AFD52203F
:1021A000FEF707FD0020FEF704FD6420FEF701FDA9
:1021B0000020FEF7FEFC7A20FEF7FBFC0020FEF775
:1021C000F8FC8B20FEF7F5FC0020FEF7F2FC9920CE
:1021D000FEF7EFFC0020FEF7ECFCA820FEF7E9FC80
:1021E0000020FEF7E6FCB920FEF7E3FC0020FEF736
:1021F000E0FCC420FEF7DDFC0020FEF7DAFCCA207C
:10220000FEF7D7FC0020FEF7D4FCD220FEF7D1FC6D
:102210000020FEF7CEFCD920FEF7CBFC0020FEF715
:10222000C8FCE020FEF7C5FC0020FEF7C2FCF3204E
:10223000FEF7BFFC0020FEF7BCFCE120FEF7B6FC79
:102240001620FEF7B6FC0020FEF7B3FC1C20FEF7BC
:10225000B0FC0020FEF7ADFC2220FEF7AAFC002017
:10226000FEF7A7FC3620FEF7A4FC0020FEF7A1FC39
:102270004520FEF79EFC0020FEF79BFC5220FEF757
:1022800098FC0020FEF795FC6420FEF792FC0020ED
:10229000FEF78FFC7A20FEF78CFC0020FEF789FC0D
:1022A0008B20FEF786FC0020FEF783FC9920FEF7CA
:1022B00080FC0020FEF77DFCA820FEF77AFC0020C1
:1022C000FEF777FCB920FEF774FC0020FEF771FCE6
:1022D000C420FEF76EFC0020FEF76BFCCA20FEF760
:1022E00068FC0020FEF765FCD220FEF762FC0020AF
:1022F000FEF75FFCD820FEF75CFC0020FEF759FCDF
:10230000E020FEF756FC0020FEF753FCF320FEF71A
:1023100050FC0020FEF74DFCE220FEF747FC0520B4
:10232000FEF747FC0020FEF744FC0B20FEF741FCC3
:102330000020FEF73EFC1B20FEF73BFC0020FEF7D2
:1023400038FC3420FEF735FC0020FEF732FC442038
:10235000FEF72FFC0020FEF72CFC4F20FEF729FC97
:102360000020FEF726FC6120FEF723FC0020FEF78C
:1023700020FC7920FEF71DFC0020FEF71AFC8820C7
:10238000FEF717FC0020FEF714FC9720FEF711FC67
:102390000020FEF70EFCA620FEF70BFC0020FEF747
:1023A00008FCB720FEF705FC0020FEF702FCC22067
:1023B000FEF7FFFB0020FEF7FCFBC720FEF7F9FB52
:1023C0000020FEF7F6FBD120FEF7F3FB0020FEF71E
:1023D000F0FBD620FEF7EDFB0020FEF7EAFBDD2048
:1023E000FEF7E7FB0020FEF7E4FBF320FEF7E1FB3E
:1023F0000020FEF7DEFBE320FEF7D8FB0520FEF70A
:10240000D8FB0020FEF7D5FB0A20FEF7D2FB002008
:10241000FEF7CFFB1C20FEF7CCFB0020FEF7C9FB2C
:102420003320FEF7C6FB0020FEF7C3FB4420FEF777
:10243000C0FB0020FEF7BDFB5020FEF7BAFB0020DA
:10244000FEF7B7FB6220FEF7B4FB0020FEF7B1FBFE
:102450007820FEF7AEFB0020FEF7ABFB8820FEF7EE
:10246000A8FB0020FEF7A5FB9720FEF7A2FB0020AB
:10247000FEF79FFBA620FEF79CFB0020FEF799FBD2
:10248000B720FEF796FB0020FEF793FBC220FEF775
:1024900090FB0020FEF78DFBC720FEF78AFB002093
:1024A000FEF787FBD120FEF784FB0020FEF781FBBF
:1024B000D520FEF77EFB0020FEF77BFBDD20FEF73C
:1024C00078FB0020FEF775FBF320FEF772FB00207F
:1024D000FEF76FFBE420FEF769FB0120FEF769FBC6
:1024E0000020FEF766FB0120FEF763FB0020FEF7ED
:1024F00060FB0220FEF75DFB0020FEF75AFB2A205E
:10250000FEF757FB0020FEF754FB3C20FEF751FB83
:102510000020FEF74EFB4B20FEF74BFB0020FEF7A2
:1025200048FB5D20FEF745FB0020FEF742FB7420D0
:10253000FEF73FFB0020FEF73CFB8420FEF739FB53
:102540000020FEF736FB9320FEF733FB0020FEF75A
:1025500030FBA220FEF72DFB0020FEF72AFBB32064
:10256000FEF727FB0020FEF724FBBE20FEF721FB31
:102570000020FEF71EFBC420FEF71BFB0020FEF729
:1025800018FBCD20FEF715FB0020FEF712FBD32031
:10259000FEF70FFB0020FEF70CFBDD20FEF709FB2A
:1025A0000020FEF706FBF320FEF703FB0020FEF7FA
:1025B00000FBE520FEF7FAFA0020FEF7FAFA002009
:1025C000FEF7F7FA0020FEF7F4FA0020FEF7F1FA22
:1025D0000220FEF7EEFA0020FEF7EBFA2920FEF7C4
:1025E000E8FA0020FEF7E5FA3C20FEF7E2FA0020C8
:1025F000FEF7DFFA4B20FEF7DCFA0020FEF7D9FAEF
:102600005D20FEF7D6FA0020FEF7D3FA7420FEF71D
:10261000D0FA0020FEF7CDFA8420FEF7CAFA002097
:10262000FEF7C7FA9320FEF7C4FA0020FEF7C1FABE
:10263000A220FEF7BEFA0020FEF7BBFAB320FEF799
:10264000B8FA0020FEF7B5FABE20FEF7B2FA002075
:10265000FEF7AFFAC420FEF7ACFA0020FEF7A9FAA5
:10266000CD20FEF7A6FA0020FEF7A3FAD320FEF74E
:10267000A0FA0020FEF79DFADC20FEF79AFA00206F
:10268000FEF797FAF320FEF794FA0020FEF791FA8E
:10269000E620FEF78BFA1120FEF78BFA0020FEF7FA
:1026A00088FA3420FEF785FA0020FEF782FA5620D9
:1026B000FEF77FFA0020FEF77CFA7620FEF779FA23
:1026C0000020FEF776FA7720FEF773FA0020FEF777
:1026D00070FA6620FEF76DFA0020FEF76AFA88208D
:1026E000FEF767FA0020FEF764FA9920FEF761FA18
:1026F0000020FEF75EFABB20FEF75BFA0020FEF733
:1027000058FA9920FEF755FA0020FEF752FA662093
:10271000FEF74FFA0020FEF74CFA5520FEF749FA73
:102720000020FEF746FA5520FEF743FA0020FEF798
:1027300040FA4520FEF73DFA0020FEF73AFA432022
:10274000FEF737FA0020FEF734FA4420FEF731FA9C
:102750000020FEF72EFAE720FEF728FA3220FEF7D7
:1027600028FA0020FEF725FA5520FEF722FA00206D
:10277000FEF71FFA7620FEF71CFA0020FEF719FA82
:102780006620FEF716FA0020FEF713FA6720FEF720
:1027900010FA0020FEF70DFA6720FEF70AFA002073
:1027A000FEF707FA8720FEF704FA0020FEF701FA89
:1027B0009920FEF7FEF90020FEF7FBF9BB20FEF79B
:1027C000F8F90020FEF7F5F99920FEF7F2F900205C
:1027D000FEF7EFF97720FEF7ECF90020FEF7E9F9B4
:1027E0004420FEF7E6F90020FEF7E3F95620FEF755
:1027F000E0F90020FEF7DDF92320FEF7DAF90020EA
:10280000FEF7D7F93320FEF7D4F90020FEF7D1F90F
:102810004520FEF7CEF90020FEF7CBF9E820FEF7C1
:10282000C5F90020FEF7C5F90020FEF7C2F999208E
:10283000FEF7BFF90020FEF7BCF98720FEF7B9F9D3
:102840000020FEF7B6F98820FEF7B3F90020FEF766
:10285000B0F97720FEF7ADF90020FEF7AAF966205F
:10286000FEF7A7F90020FEF7A4F98820FEF7A1F9EA
:102870000020FEF79EF9AA20FEF79BF90020FEF744
:1028800098F9BB20FEF795F90020FEF792F9992000
:10289000FEF78FF90020FEF78CF96620FEF789F924
:1028A0000020FEF786F95520FEF783F90020FEF799
:1028B00080F95520FEF77DF90020FEF77AF94420D3
:1028C000FEF777F90020FEF774F94420FEF771F95E
:1028D0000020FEF76EF95520FEF76BF90020FEF799
:1028E00068F9E920FEF762F9AA20FEF762F90020F4
:1028F000FEF75FF90020FEF75CF90020FEF759F9BA
:102900000020FEF753F9AA20FEF753F9CF20FEF777
:102910004DF90020FEF74DF90020FEF74AF900209E
:10292000FEF747F90020FEF744F90020FEF741F9D1
:102930000020FEF73EF90020FEF73BF90020FEF7ED
:1029400038F90020FEF735F90020FEF732F90020B3
:10295000FEF72FF90020FEF72CF90020FEF729F9E9
:102960000020FEF726F90020FEF723F90020FEF7ED
:1029700020F90020FEF71DF9F020FEF717F90020DE
:10298000FEF717F95020FEF714F90020FEF711F9B1
:102990000020FEF70EF90020FEF70BF9F320FEF7FA
:1029A00005F90020FEF705F9F920FEF7FFF80620EB
:1029B000FEF7FFF81020FEF7FCF82920FEF7F9F8E3
:1029C0000020FEF7F6F83A20FEF7F0F85520FEF763
:1029D000F0F81120FEF7EAF8642006F002FB292047
:1029E000FEF7E4F83520FEF7E1F80020FEF7E1F805
:1029F0005120FEF7DBF8FF20FEF7DBF85320FEF74F
:102A0000D5F82C20FEF7D5F85520FEF7CFF8822018
:102A1000FEF7CFF82C20FEF7C9F801F048B8FE48C1
:102A2000808845F2105188427ED155214FF4704084
:102A3000FEF7CBF8AA214FF20100FEF7C6F85221AB
:102A40004FF20200FEF7C1F808214FF20300FEF733
:102A5000BCF801214FF20400FEF7B7F80D214FF446
:102A60003040FEF7B2F80D214BF20100FEF7ADF851
:102A70000D214BF20200FEF7A8F834214FF4364046
:102A8000FEF7A3F834214BF20160FEF79EF83421E3
:102A90004BF20260FEF799F80D214FF43140FEF73A
:102AA00094F80D214BF20110FEF78FF80D214BF237
:102AB0000210FEF78AF834214FF43740FEF785F80C
:102AC00034214BF20170FEF780F834214BF2027092
:102AD000FEF77BF800214FF43240FEF776F8002134
:102AE0004BF20120FEF771F800214BF20220FEF7B5
:102AF0006CF824214FF43840FEF767F824214BF698
:102B00000100FEF762F824214BF60200FEF75DF8A3
:102B100001214FF43F40FEF758F80F214FF43340A6
:102B2000FEF753F80F2100E0FEE34BF20130FEF711
:102B30004CF80F214BF20230FEF747F834214FF4E6
:102B40003940FEF742F834214BF60110FEF73DF80C
:102B500034214BF60210FEF738F808214FF43540C7
:102B6000FEF733F808214BF20150FEF72EF808214A
:102B70004BF20250FEF729F803214FF44240FEF7D2
:102B800024F824214FF43A40FEF71FF824214BF695
:102B90000120FEF71AF824214BF60220FEF715F863
:102BA00000214FF43C40FEF710F878214BF601402D
:102BB000FEF70BF800214BF60240FEF706F8002165
:102BC0004FF43D40FEF701F878214BF60150FDF738
:102BD000FCFF00214BF60250FDF7F7FF00214FF4F8
:102BE0003E40FDF7F2FF64214BF60160FDF7EDFF7B
:102BF00000214FF45140FDF7E8FF33214DF2011061
:102C0000FDF7E3FF00214DF20210FDF7DEFF342156
:102C10004DF20310FDF7D9FF00214DF20410FDF72E
:102C2000D4FF3A214DF20510FDF7CFFF00214DF200
:102C30000610FDF7CAFF4A214DF20710FDF7C5FF48
:102C400000214DF20810FDF7C0FF5C214DF2091084
:102C5000FDF7BBFF00214DF20A10FDF7B6FF812101
:102C60004DF20B10FDF7B1FF00214DF20C10FDF7F6
:102C7000ACFFA6214DF20D10FDF7A7FF00214DF28C
:102C80000E10FDF7A2FFE5214DF20F10FDF79DFF9D
:102C900001214DF21010FDF798FF13214DF2111094
:102CA000FDF793FF01214DF21210FDF78EFF542125
:102CB0004DF21310FDF789FF01214DF21410FDF7BD
:102CC00084FF82214DF21510FDF77FFF01214DF2A7
:102CD0001610FDF77AFFCA214DF21710FDF775FFA8
:102CE00002214DF21810FDF770FF00214DF219106E
:102CF000FDF76BFF02214DF21A10FDF766FF01216F
:102D00004DF21B10FDF761FF02214DF21C10FDF783
:102D10005CFF34214DF21D10FDF757FF02214DF2EB
:102D20001E10FDF752FF67214DF21F10FDF74DFFFA
:102D300002214DF22010FDF748FF84214DF22110B1
:102D4000FDF743FF02214DF22210FDF73EFFA421C3
:102D50004DF22310FDF739FF02214DF22410FDF74B
:102D600034FFB7214DF22510FDF72FFF02214DF260
:102D70002610FDF72AFFCF214DF22710FDF725FF82
:102D800002214DF22810FDF720FFDE214DF229101F
:102D9000FDF71BFF02214DF22A10FDF716FFF2216D
:102DA0004DF22B10FDF711FF02214DF22C10FDF713
:102DB0000CFFFE214DF22D10FDF707FF03214DF210
:102DC0002E10FDF702FF10214DF22F10FDF7FDFE32
:102DD00003214DF23010FDF7F8FE33214DF2311092
:102DE000FDF7F3FE03214DF23210FDF7EEFE6D21EB
:102DF0004DF23310FDF7E9FE00214FF45240FDF78C
:102E0000E4FE33214DF20120FDF7DFFE00214DF2FB
:102E10000220FDF7DAFE01E04406002034214DF2E5
:102E20000320FDF7D2FE00214DF20420FDF7CDFE78
:102E30003A214DF20520FDF7C8FE00214DF2062093
:102E4000FDF7C3FE4A214DF20720FDF7BEFE00212B
:102E50004DF20820FDF7B9FE5C214DF20920FDF787
:102E6000B4FE00214DF20A20FDF7AFFE81214DF2A4
:102E70000B20FDF7AAFE00214DF20C20FDF7A5FE68
:102E8000A6214DF20D20FDF7A0FE00214DF20E20EF
:102E9000FDF79BFEE5214DF20F20FDF796FE012187
:102EA0004DF21020FDF791FE13214DF21120FDF798
:102EB0008CFE01214DF21220FDF787FE54214DF2C8
:102EC0001320FDF782FE01214DF21420FDF77DFE57
:102ED00082214DF21520FDF778FE01214DF21620DA
:102EE000FDF773FECA214DF21720FDF76EFE022199
:102EF0004DF21820FDF769FE00214DF21920FDF773
:102F000064FE02214DF21A20FDF75FFE01214DF211
:102F10001B20FDF75AFE02214DF21C20FDF755FE45
:102F200034214DF21D20FDF750FE02214DF21E20EE
:102F3000FDF74BFE67214DF21F20FDF746FE0221F3
:102F40004DF22020FDF741FE84214DF22120FDF7B6
:102F50003CFE02214DF22220FDF737FEA4214DF266
:102F60002320FDF732FE02214DF22420FDF72DFE35
:102F7000B7214DF22520FDF728FE02214DF2262033
:102F8000FDF723FECF214DF22720FDF71EFE022183
:102F90004DF22820FDF719FEDE214DF22920FDF724
:102FA00014FE02214DF22A20FDF70FFEF2214DF210
:102FB0002B20FDF70AFE02214DF22C20FDF705FE25
:102FC000FE214DF22D20FDF700FE03214DF22E20B3
:102FD000FDF7FBFD10214DF22F20FDF7F6FD03213B
:102FE0004DF23020FDF7F1FD33214DF23120FDF798
:102FF000ECFD03214DF23220FDF7E7FD6D214DF28E
:103000003320FDF7E2FD00214FF45340FDF7DDFDD5
:1030100033214DF20130FDF7D8FD00214DF2023091
:10302000FDF7D3FD34214DF20330FDF7CEFD002135
:103030004DF20430FDF7C9FD3A214DF20530FDF7A0
:10304000C4FD00214DF20630FDF7BFFD4A214DF2CF
:103050000730FDF7BAFD00214DF20830FDF7B5FD50
:103060005C214DF20930FDF7B0FD00214DF20A3030
:10307000FDF7ABFD81214DF20B30FDF7A6FD0021E0
:103080004DF20C30FDF7A1FDA6214DF20D30FDF7FC
:103090009CFD00214DF20E30FDF797FDE5214DF22C
:1030A0000F30FDF792FD01214DF21030FDF78DFD3F
:1030B00013214DF21130FDF788FD01214DF2123040
:1030C000FDF783FD54214DF21330FDF77EFD012104
:1030D0004DF21430FDF779FD82214DF21530FDF7E8
:1030E00074FD01214DF21630FDF76FFDCA214DF23E
:1030F0001730FDF76AFD02214DF21830FDF765FD2E
:1031000000214DF21930FDF760FD02214DF21A3019
:10311000FDF75BFD01214DF21B30FDF756FD02214D
:103120004DF21C30FDF751FD34214DF21D30FDF7FD
:103130004CFD02214DF21E30FDF747FD67214DF297
:103140001F30FDF742FD02214DF22030FDF73DFD1D
:1031500084214DF22130FDF738FD02214DF222305D
:10316000FDF733FDA4214DF22330FDF72EFD0221A2
:103170004DF22430FDF729FDB7214DF22530FDF742
:1031800024FD02214DF22630FDF71FFDCF214DF227
:103190002730FDF71AFD02214DF22830FDF715FD0D
:1031A000DE214DF22930FDF710FD02214DF22A30CB
:1031B000FDF70BFDF2214DF22B30FDF706FD02214C
:1031C0004DF22C30FDF701FDFE214DF22D30FDF7C3
:1031D000FCFC03214DF22E30FDF7F7FC10214DF2DF
:1031E0002F30FDF7F2FC03214DF23030FDF7EDFCFE
:1031F00033214DF23130FDF7E8FC03214DF232303E
:10320000FDF7E3FC6D214DF23330FDF7DEFC0021CC
:103210004FF45440FDF7D9FC33214DF20140FDF746
:10322000D4FC00214DF20240FDF7CFFC34214DF2D9
:103230000340FDF7CAFC00214DF20440FDF7C5FC38
:103240003A214DF20540FDF7C0FC00214DF2064049
:10325000FDF7BBFC4A214DF20740FDF7B6FC00210B
:103260004DF20840FDF7B1FC5C214DF20940FDF73D
:10327000ACFC00214DF20A40FDF7A7FC81214DF284
:103280000B40FDF7A2FC00214DF20C40FDF79DFC28
:10329000A6214DF20D40FDF798FC00214DF20E40A5
:1032A000FDF793FCE5214DF20F40FDF78EFC012167
:1032B0004DF21040FDF789FC13214DF21140FDF74E
:1032C00084FC01214DF21240FDF77FFC54214DF2A8
:1032D0001340FDF77AFC01214DF21440FDF775FC17
:1032E00082214DF21540FDF770FC01214DF2164090
:1032F000FDF76BFCCA214DF21740FDF766FC022179
:103300004DF21840FDF761FC00214DF21940FDF728
:103310005CFC02214DF21A40FDF757FC01214DF2F1
:103320001B40FDF752FC00E003E302214DF21C407C
:10333000FDF74BFC34214DF21D40FDF746FC022108
:103340004DF21E40FDF741FC67214DF21F40FDF795
:103350003CFC02214DF22040FDF737FC84214DF268
:103360002140FDF732FC02214DF22240FDF72DFCF9
:10337000A4214DF22340FDF728FC02214DF2244008
:10338000FDF723FCB7214DF22540FDF71EFC02217D
:103390004DF22640FDF719FCCF214DF22740FDF7F5
:1033A00014FC02214DF22840FDF70FFCDE214DF206
:1033B0002940FDF70AFC02214DF22A40FDF705FCE9
:1033C000F2214DF22B40FDF700FC02214DF22C4082
:1033D000FDF7FBFBFE214DF22D40FDF7F6FB03212F
:1033E0004DF22E40FDF7F1FB10214DF22F40FDF77D
:1033F000ECFB03214DF23040FDF7E7FB33214DF2AA
:103400003140FDF7E2FB03214DF23240FDF7DDFBD9
:103410006D214DF23340FDF7D8FB00214FF45540AC
:10342000FDF7D3FB33214DF20150FDF7CEFB002118
:103430004DF20250FDF7C9FB34214DF20350FDF768
:10344000C4FB00214DF20450FDF7BFFB3A214DF2C1
:103450000550FDF7BAFB00214DF20650FDF7B5FB14
:103460004A214DF20750FDF7B0FB00214DF2085004
:10347000FDF7ABFB5C214DF20950FDF7A6FB0021E7
:103480004DF20A50FDF7A1FB81214DF20B50FDF7E3
:103490009CFB00214DF20C50FDF797FBA6214DF24D
:1034A0000D50FDF792FB00214DF20E50FDF78DFB04
:1034B000E5214DF20F50FDF788FB01214DF2105030
:1034C000FDF783FB13214DF21150FDF77EFB012127
:1034D0004DF21250FDF779FB54214DF21350FDF7D8
:1034E00074FB01214DF21450FDF76FFB82214DF268
:1034F0001550FDF76AFB01214DF21650FDF765FBF3
:10350000CA214DF21750FDF760FB02214DF2185011
:10351000FDF75BFB00214DF21950FDF756FB022130
:103520004DF21A50FDF751FB01214DF21B50FDF7F2
:103530004CFB02214DF21C50FDF747FB34214DF2AC
:103540001D50FDF742FB02214DF21E50FDF73DFBE1
:1035500067214DF21F50FDF738FB02214DF220503C
:10356000FDF733FB84214DF22150FDF72EFB0221A4
:103570004DF22250FDF729FBA4214DF22350FDF717
:1035800024FB02214DF22450FDF71FFBB7214DF221
:103590002550FDF71AFB02214DF22650FDF715FBD1
:1035A000CF214DF22750FDF710FB02214DF228509C
:1035B000FDF70BFBDE214DF22950FDF706FB022142
:1035C0004DF22A50FDF701FBF2214DF22B50FDF791
:1035D000FCFA02214DF22C50FDF7F7FAFE214DF2D4
:1035E0002D50FDF7F2FA03214DF22E50FDF7EDFAC2
:1035F00010214DF22F50FDF7E8FA03214DF2305023
:10360000FDF7E3FA33214DF23150FDF7DEFA0321E5
:103610004DF23250FDF7D9FA6D214DF23350FDF7DE
:10362000D4FA00214FF45640FDF7CFFA33214DF282
:103630000160FDF7CAFA00214DF20260FDF7C5FAFC
:1036400034214DF20360FDF7C0FA00214DF2046011
:10365000FDF7BBFA3A214DF20560FDF7B6FA0021FD
:103660004DF20660FDF7B1FA4A214DF20760FDF711
:10367000ACFA00214DF20860FDF7A7FA5C214DF28B
:103680000960FDF7A2FA00214DF20A60FDF79DFAEC
:1036900081214DF20B60FDF798FA00214DF20C608C
:1036A000FDF793FAA6214DF20D60FDF78EFA002189
:1036B0004DF20E60FDF789FAE5214DF20F60FDF73E
:1036C00084FA01214DF21060FDF77FFA13214DF2CB
:1036D0001160FDF77AFA01214DF21260FDF775FADB
:1036E00054214DF21360FDF770FA01214DF2146080
:1036F000FDF76BFA82214DF21560FDF766FA0121A4
:103700004DF21660FDF761FACA214DF21760FDF720
:103710005CFA02214DF21860FDF757FA00214DF2D4
:103720001960FDF752FA02214DF21A60FDF74DFAC9
:1037300001214DF21B60FDF748FA02214DF21C6099
:10374000FDF743FA34214DF21D60FDF73EFA0221E8
:103750004DF21E60FDF739FA67214DF21F60FDF74B
:1037600034FA02214DF22060FDF72FFA84214DF248
:103770002160FDF72AFA02214DF22260FDF725FAB9
:10378000A4214DF22360FDF720FA02214DF22460BE
:10379000FDF71BFAB7214DF22560FDF716FA02215D
:1037A0004DF22660FDF711FACF214DF22760FDF7AB
:1037B0000CFA02214DF22860FDF707FADE214DF2E6
:1037C0002960FDF702FA02214DF22A60FDF7FDF9AA
:1037D000F2214DF22B60FDF7F8F902214DF22C6039
:1037E000FDF7F3F9FE214DF22D60FDF7EEF903210F
:1037F0004DF22E60FDF7E9F910214DF22F60FDF733
:10380000E4F903214DF23060FDF7DFF933214DF289
:103810003160FDF7DAF903214DF23260FDF7D5F999
:103820006D214DF23360FDF7D0F955214FF4704012
:10383000FDF7CBF9AA214FF20100FDF7C6F952219D
:103840004FF20200FDF7C1F908214FF20300FDF726
:10385000BCF900214FF20400FDF7B7F9CC214FF479
:103860003140FDF7B2F900214BF20110FDF7ADF93F
:1038700005214FF43640FDF7A8F970214FF4374089
:10388000FDF7A3F970214BF20170FDF79EF90121BC
:103890004FF43840FDF799F903214BF60100FDF78D
:1038A00094F903214BF60200FDF78FF903214BF643
:1038B0000300FDF78AF902214FF43C40FDF785F93A
:1038C00000214BF60140FDF780F900214BF6024044
:1038D000FDF77BF9D0214FF44940FDF776F902213D
:1038E0004CF60110FDF771F950214CF60210FDF76E
:1038F0006CF950214CF60310FDF767F950214CF696
:103900000410FDF762F900214FF45450FDF75DF902
:1039100055214FF46850FDF758F94FF48850FDF7E2
:1039200045F9782005F039FB4FF42450FDF73EF9B6
:10393000BDE0FE48808841F663118842F8D1E2205C
:10394000FDF734F91D20FDF734F90220FDF731F9B8
:103950000420FDF72EF9642005F01FFBE020FDF7A1
:1039600025F90120FDF725F90A2005F03AFBE020B2
:10397000FDF71CF90320FDF71CF90C2005F031FBC5
:103980000120FDF713F90A2005F02BFBE620FDF7D7
:103990000DF92F20FDF70DF9FF20FDF70AF9FF20A3
:1039A000FDF707F9B020FDF701F92020FDF701F937
:1039B0000020FDF7FEF80320FDF7FBF840F21F3072
:1039C000FDF7F7F80120FDF7F4F840F2DF10FDF7FE
:1039D000F0F80020FDF7EDF8B420FDF7E7F804203B
:1039E000FDF7E7F840F21F40FDF7E3F80020FDF790
:1039F000E0F82E20FDF7DDF80020FDF7DAF80020D2
:103A0000FDF7D7F80020FDF7D4F80020FDF7D1F836
:103A1000B620FDF7CBF80220FDF7CBF84FF403708A
:103A2000FDF7C7F80020FDF7C4F81720FDF7C1F82F
:103A30001520FDF7BEF80020FDF7BBF80020FDF7CC
:103A4000B8F8F020FDF7B2F80320FDF7B2F829200E
:103A5000FDF7ACF8D020FDF7A9F80020FDF7A9F894
:103A6000BE20FDF7A3F80520FDF7A3F8FE20FDF723
:103A7000A0F80120FDF79DF80020FDF79AF800203E
:103A8000FDF797F80020FDF794F8B820FDF78EF8C1
:103A90000320FDF78EF80120FDF78BF8BA20FDF723
:103AA00085F80120FDF785F86420FDF747FB00202D
:103AB000FDF76CFB01209E4908604FF6FF70FDF793
:103AC000B0FC1FB000BD2DE9F04F05460E4617466D
:103AD0009846DDF824A04FF0000B781B401C1FFA1D
:103AE00080FB344613E021462846FDF79BF8FDF79E
:103AF0007CF84FF0000906E08E48A0F800A009F11C
:103B000001001FFA80F9D945F6DB601C84B24445F8
:103B1000E9DDBDE8F08F2DE9F84F07460D469046E8
:103B20009946DDF828B0A8EB0700401C1FFA80FA80
:103B3000A9EB0500401C80B20090002414E0281975
:103B400081B23846FDF76EF8FDF74FF8002607E022
:103B500004FB0A603BF8100076490880701C86B2AE
:103B60005645F5DB601C84B200988442E7DBBDE873
:103B7000F88F2DE9FF4F84B081468A4600200390DC
:103B800002900698A0EB09050798A0EB0A06CDF86D
:103B90000490CDF800A0002D01DD012705E00DB94E
:103BA000002702E04FF0FF376D42002E02DD4FF09C
:103BB000010806E016B94FF0000802E04FF0FF38A8
:103BC0007642B54201DD2C4600E034464FF0000B52
:103BD00021E0009A91B2019A90B2FDF72CFA039875
:103BE000284403900298304402900398A04205DDD7
:103BF0000398001B03900198384401900298A0425A
:103C000005DD0298001B02900098404400900BF1E3
:103C100001001FFA80FB601C8345DADD08B0BDE8B7
:103C2000F08FF0B504460D4616461F462B46324629
:103C300029462046FFF79DFF3B462246294620465F
:103C4000FFF797FF3B46324639462046FFF791FF84
:103C50003B46324629463046FFF78BFFF0BD2DE943
:103C6000F04306460F469046002445460320A0EB4D
:103C700048093CE07A1B91B2321990B2FDF7DBF9AA
:103C80003A1B91B2721990B2FDF7D5F93A1991B277
:103C9000721990B2FDF7CFF97A1991B2321990B238
:103CA000FDF7C9F97A1991B2321B90B2FDF7C3F949
:103CB0003A1991B2721B90B2FDF7BDF97A1B91B21D
:103CC000321B90B2FDF7B7F93A1B91B2721B90B25A
:103CD000FDF7B1F9641CB9F1000F03DAA000801DF3
:103CE000814404E0601B80000A3081446D1EAC42B8
:103CF000C0DDBDE8F0832DE9F84F80460E4617463B
:103D00001C46B3462046E31704EB5373DB102146F1
:103D10004FEAE47C04EB5C7C4FEAEC0CA4EBCC0CAB
:103D2000BCF1000F08D04FF0010C07E04406002062
:103D3000808121420008006C4FF0000C6344224651
:103D400004EBD27C4FEA6C0C03FB0CF3DBB2009368
:103D5000A7F12000C7B2002556E00C2C07D107EBD5
:103D600047009F4901EB800010F8059013E0102CEC
:103D700005D19C4800EB071010F805900BE0182CBB
:103D800007D107EBC700984901EB800010F80590B8
:103D900001E0BDE8F88F4FF0000A2FE009F0800045
:103DA00030B19248028831464046FDF752F907E0AB
:103DB0000A9828B98E48028831464046FDF749F9ED
:103DC0004FEA49604FEA1069701C86B28948408802
:103DD000B04200DCDDE7A6EB0B00A0420AD15E4654
:103DE00008F101001FFA80F882480088404500DC95
:103DF000CFE706E00AF1010000F0FF0ABAF1080F70
:103E0000CCDB00BF681CC5B200988542A5DB00BFB3
:103E1000BFE710B50246012000E050430B1EA1F1A0
:103E20000104E1B2F9D110BD2DE9FF4F81B0074681
:103E300091461E460E9D4FF0000A002439E0301BCB
:103E4000401EC1B20A20FFF7E4FFB9FBF0F00A21DF
:103E5000B0FBF1F201FB1208BAF1000F16D1701E8F
:103E6000A04213DDB8F1000F0ED10020AB4605EBE8
:103E7000DB71491001FB0471009088B22B462022AF
:103E80000299FFF738FF12E04FF0010A0020AB461D
:103E900005EBDB71491001FB0471009088B208F159
:103EA0003001CAB22B460299FFF725FF00BF601C04
:103EB000C4B2B442C3DB05B0BDE8F08F2DE9FF4FBB
:103EC00082B0064692461F46DDE90F480020019069
:103ED00000254DE0781B401EC1B20A20FFF799FF74
:103EE000BAFBF0F00A21B0FBF1F201FB12090198D4
:103EF00050BB781EA84227DDB9F1000F22D108F08F
:103F0000800078B108F00100A34604EBDB71491092
:103F100001FB0561009088B2234630220399FFF728
:103F2000EAFE0EE008F00100A34604EBDB71491045
:103F300001FB0561009088B2234620220399FFF718
:103F4000DAFE13E00120019008F00100A34604EB23
:103F5000DB71491001FB0561009088B209F1300165
:103F6000CAB223460399FFF7C6FE00BF681CC5B25C
:103F7000BD42AFDB06B0BDE8F08F2DE9F84704463F
:103F80000D4690469946DDE9096704F0FF0A08EB03
:103F900004001FFA80F809EB05001FFA80F916E00B
:103FA000444502DB5446A81985B24D4500DB14E0B8
:103FB000002000903A78334629462046FFF79BFEC2
:103FC000304606EBD07104EB61018CB27F1C38786F
:103FD0007E2802DC38782028E2DA00BFBDE8F887C6
:103FE000F66001086A6501085A6B01081600002096
:103FF000180000204406002070B50546002405E0A6
:10400000601CC4B2C82C01DD002070BD02213A48FA
:1040100006F01DF90028F3D02946374806F0C4F809
:10402000002405E0601CC4B2C82C01DD0020ECE7D0
:104030000121314806F00BF90028F3D02E4806F094
:10404000B5F8C0B2E1E700B587B00121082005F05E
:104050004BFF0121880305F054FF4FF46040ADF899
:10406000180018208DF81B0003208DF81A0006A9EF
:10407000224805F07DFC4FF46041204805F025FD05
:104080000020ADF804004FF48270ADF80600002067
:10409000ADF808000220ADF80A000120ADF80C00D0
:1040A0004002ADF80E003820ADF810000020ADF849
:1040B00012000720ADF8140001A90F4805F09EFF7B
:1040C00001210D4806F03FF8FF20FFF795FF07B0EC
:1040D00000BD10B50446084800884FF6C771084077
:1040E00005490880084600882043088001210248CD
:1040F00006F029F810BD000000380040000C014017
:1041000010B500240020D14908609020FFF774FF0B
:104110000020FFF771FF0020FFF76EFF0020FFF780
:104120006BFFFF20FFF768FF44EA0024FF20FFF742
:1041300063FF04430120C649C1F8B001204610BD09
:1041400008B50121082005F0CFFE4FF48050ADF8EE
:10415000000010208DF8030003208DF8020069464E
:10416000BC4805F005FC4FF48051BA4805F0ADFCA1
:104170000120B6490860FFF766FF0020FFF7A9FF9E
:10418000FFF7BEFFB449088008BD10B50024002029
:10419000AE4908600520FFF72FFFFF20FFF72CFF37
:1041A00004460120AA49C1F8B001204610BD10B54F
:1041B00004460020A54908600120FFF71DFF2046A6
:1041C000FFF71AFF0120A249C1F8B00110BD10B5D8
:1041D00000209E4908600620FFF70EFF01209C4941
:1041E000C1F8B00110BD10B5002098490860042046
:1041F000FFF702FF01209649C1F8B00110BD2DE97B
:10420000F04106460C4617460020904908600320FE
:10421000FFF7F2FEC4F30740FFF7EEFEC4F30720FA
:10422000FFF7EAFEE0B2FFF7E7FE002505E0FF201A
:10423000FFF7E2FE7055681C85B2BD42F7DB012036
:1042400082490860BDE8F08110B500BFFFF79DFF0F
:1042500000F001000028F9D110BD2DE9F04106461B
:104260000C461746FFF7B3FF00207849086002208C
:10427000FFF7C2FEC4F30740FFF7BEFEC4F30720FA
:10428000FFF7BAFEE0B2FFF7B7FE002504E0705D6D
:10429000FFF7B2FE681C85B2BD42F8DB01206B4916
:1042A0000860FFF7D1FFBDE8F0812DE9F041074636
:1042B0000E461446F0B2C0F58075AC4200DC2546CF
:1042C00012E02A4631463846FFF7C7FFAC4200D11C
:1042D0000BE02F442E44601B84B2B4F5807F02DDD6
:1042E0004FF4807500E02546EBE700BFBDE8F081A4
:1042F00010B50446214659A00EF05EFE2403FFF7D8
:1043000066FFFFF7A1FF0020504908602020FFF75B
:1043100073FEC4F30740FFF76FFEC4F30720FFF7F7
:104320006BFEE0B2FFF768FE01204949C1F8B00119
:10433000FFF78AFF10BD2DE9F05F81460F46164654
:10434000DFF820B14FEA1738C7F30B0ACAF58054DB
:10435000A64200DC344644E04FEA08314FF4805274
:104360005846FFF74CFF002508E00AEB05001BF854
:104370000000FF2800D003E0681C85B2A542F4DBF2
:1043800000BFA54216DA4046FFF7B2FF002507E05E
:1043900019F8050005EB0A010BF80100681C85B24D
:1043A000A542F5DB4FEA08314FF480525846FFF73B
:1043B0007CFF04E0224639464846FFF776FFA642D6
:1043C00000D10FE008F101084FF0000AA144274492
:1043D000301B86B2B6F5805F02DD4FF4805400E0FA
:1043E0003446B9E700BFBDE8F09F10B5FFF7EFFE18
:1043F000FFF72AFF002015490860C720FFF7FCFDE2
:1044000001201349C1F8B001FFF71EFF10BD10B520
:1044100000200E490860B920FFF7EEFD01200C498D
:10442000C1F8B001032004F0B8FD10BD10B50020A4
:1044300006490860AB20FFF7DFFD01200449C1F801
:10444000B001032004F0A9FD10BD0000B08121429D
:1044500000802142000C01401A00002066653A25C8
:10446000780D0A005206002001460020012900D0E4
:1044700011B9FE4B197000E0262070470146FC4A36
:10448000506820F0FF0008435060704770B5044644
:1044900005E0F748456B05F0450000B100E0F8E79E
:1044A00000BF042007F00BFA20B1042007F011FA36
:1044B000032070BD012007F002FA20B1012007F0AF
:1044C00008FA0120F5E7EA480069A04201D010206F
:1044D000EFE740F2FF50E64988630846406908214B
:1044E0000840C0B2E5E72DE9FC4107460D4600262D
:1044F00000240020009001900820DE490860102070
:104500004860402088600020C8604FF480600861E7
:10451000084607F05DF91020FFF7B8FF044614B114
:104520002046BDE8FC81D44800880004D1490860D9
:1045300037204860402088600020C8604FF48060C9
:104540000861084607F044F93720FFF79FFF04464B
:104550000CB12046E5E74FF0FF30C849086008205D
:104560004860302088600220C86000200861012077
:104570004861084607F055F90020BE49086033201D
:104580004860402088600020C8604FF48060086167
:10459000084607F01DF93320FFF778FF04460CB1F9
:1045A0002046BEE70CE04FF4001007F088F938B160
:1045B00007F059F94DF82600761C022E00D306E0CC
:1045C000AB48406B40F22A6108400028EBD000BFA6
:1045D000082007F074F920B1082007F07AF90420C8
:1045E0009FE7022007F06BF920B1022007F071F974
:1045F000022096E7202007F062F920B1202007F082
:1046000068F906208DE74FF4007007F058F928B1DB
:104610004FF4007007F05DF9072082E740F2FF5089
:1046200007F057F900980006009901F47F4140EA2D
:104630000120009901F47F0140EA1120009940EA2D
:104640001160686001980006019901F47F4140EA19
:104650000120019901F47F0140EA1120019940EA0B
:104660001160286020465CE77CB5054600240020E8
:104670000090019000260DB1022600E000267C4843
:10468000406900F0007008B10E207CBD7A490988AD
:1046900088B26946FFF727FF04460CB12046F4E7CD
:1046A000019800F4802060B37348008800047149C9
:1046B000086037204860402088600020C8604FF4C0
:1046C00080600861084607F083F83720FFF7DEFEB8
:1046D00004460CB12046D8E76648066006206549C6
:1046E0004860402088600020C8604FF48060086106
:1046F000084607F06DF80620FFF7C8FE044620467E
:10470000C3E72520C1E770B5044600255C48007862
:10471000032801D1272070BD5948007838B1584886
:104720000078012803D056480078022818D1022CBE
:1047300001D32720EFE7E0B2FFF796FF05467DB9EA
:104740004B48406820F4C0504949486008464068DA
:10475000A1B240EAC1204649486008464068486026
:104760002846D8E710B5044642480460072041496E
:104770004860402088600020C8604FF48060086175
:10478000084607F025F80720FFF780FE10BDF0B5BA
:104790000146002000223A4B1B7881F85630364BF8
:1047A0001B88A1F85430374B1B681A0E93090B7005
:1047B000C2F383034B7002F003038B70314B1B6811
:1047C000C3F30742CA702F4B1B88C3F307220A7139
:1047D0002C4B1A784A715B681A0E1301CB80294B57
:1047E0005B68C3F30742CB8843EA1213CB8002F025
:1047F0000F030B72234B9B88C3F30722D3094B7221
:10480000C2F380138B72C2F34013CB72C2F3001356
:104810000B7300234B731A4B1B783BB1184B1B785F
:10482000012B03D0164B1B78032B5ED193071B0D76
:104830000B61144B1A790B6943EA82030B61114B2C
:104840009B681A0E0B6943EA92130B61C2F3C20311
:104850000B7502F007034B750A4B9B68C3F30742C5
:1048600053098B75C2F38203CB750DE02400002041
:1048700000800140701600202000002084160020D7
:104880001C0000209C16002093075B0F0B76F74B53
:104890001B89C3F307220B7E43EAD2130B760B6905
:1048A0005B1C0024C1E912340B7E9B1C012404FA1A
:1048B00003F3DC17D1E91256A5FB037C06FB03C307
:1048C00005FB0433C1E912730C7A0123A3400B6585
:1048D0000024D1E912650B6DA6FB037C05FB03C325
:1048E00006FB0433C1E912732EE0E14B1B78022B67
:1048F0002AD1DE4B1A7993069B0A0B61DB4B9B682E
:104900001A0E0B6943EA02230B61D84B9B68C3F371
:1049100007420B6913430B61D44B1B89C3F3072276
:104920000B695B1C4FF40074A3FB04464FF48063D7
:104930000025A4FB037C06FB03C304FB0533C1E98C
:1049400012734FF400730B65C2F3801301F8193F23
:1049500093065B0E4B70C54B1A7A4B7843EAD21321
:104960004B7002F07F038B70C04BDB681A0ED309CB
:10497000CB70C2F341130B71C2F382034B719307E7
:104980001B0F8B71B94BDB68C3F307428B7943EA8A
:1049900092138B71C2F34013CB7100230B7202F0A0
:1049A00001034B72B14B9B89C3F30722D3098B726E
:1049B000C2F38013CB72C2F340130B73C2F3001324
:1049C0004B73C2F381038B7302F00303CB73A74BCA
:1049D0001A7B53080B7401234B74A64B1B681A0EE9
:1049E000CA741939A34B1B68C3F307421402CC8560
:1049F000A04B1B88C3F30722CB8D1343CB859D4B64
:104A00001A7814060C635B681A0E0B6B43EA0244B7
:104A10000C63984B5B68C3F307420B6B43EA0224B9
:104A20000C63944B9B88C3F307220B6B13430B63FC
:104A3000904B1A7934235A548E4B9B681A0E3523A7
:104A40005A548C4B9B68C3F3074214068C63894B02
:104A50001B89C3F307228B6B43EA02448C63854BAB
:104A60001A7A8B6B43EA02248C63824BDB681A0E42
:104A70008B6B13438B637F4BDB68C3F307423C2391
:104A80005B5C43EA12143C235C5413071C0DCC8777
:104A9000784B9B89C3F30722CB8F1343CB87754B8E
:104AA0001A7B540840235C54012441235C54F0BD1C
:104AB00070B500264FF4803505E06F48446B04F074
:104AC000450000B103E0281EA5F10105F5D100BFA6
:104AD00015B104F0040028B10326042006F0F9FE05
:104AE000304670BD012006F0EAFE18B10126012013
:104AF00006F0EFFE40F2FF5006F0EBFE3046F0E726
:104B00002DE9F04105460E464FF0000805E05A48F1
:104B1000476B07F0450000B100E0F8E700BF042054
:104B200006F0CDFE28B1042006F0D3FE0320BDE838
:104B3000F081012006F0C3FE20B1012006F0C9FE7D
:104B40000120F4E74C480069A84201D01020EEE7AC
:104B500040F2FF5006F0BDFE4748446904F460404F
:104B600018B9200C30804046E1E704F4005008B149
:104B70001320DCE704F4804008B11020D7E704F4E8
:104B8000004008B10F20D2E74046D0E738B50024F6
:104B90000120009006F007FE08B9252038BD3448F2
:104BA0000078042821D000203449086002204860A1
:104BB000C02088600020C8604FF48060086108460B
:104BC00006F006FEFFF774FF04460CB12046E5E749
:104BD0002948406927490860274880694860264875
:104BE000C06988602448006AC8602148007858B1CC
:104BF0001F480078012807D01D480078062803D0F8
:104C00001B480078022816D100201C4908600320A8
:104C10004860402088600020C8604FF480600861D0
:104C2000084606F0D5FD69460320FFF769FF0446F4
:104C30000CB12046B2E70E480078032820D1BDF819
:104C4000000000040D49086003204860402088608F
:104C50000020C8604FF480600861084606F0B8FD87
:104C6000FFF726FF04465CB1204697E79C1600201C
:104C70001C000020AC1600200080014070160020AF
:104C8000FE480078042827D0BDF80000FC490860E1
:104C9000BDF800000004FB49086009204860C020FE
:104CA00088600020C8604FF480600861084606F004
:104CB0008FFDFFF7FDFE04460CB120466EE7F2487B
:104CC0004069F2490860F04880694860EE48C06970
:104CD0008860ED48006AC86000205FE710B505E015
:104CE000E948446B04F0450000B100E0F8E700BF7C
:104CF000042006F0E4FD20B1042006F0EAFD0320C4
:104D000010BD40F2FF5006F0E4FD0020F8E770B55A
:104D100000264FF4803505E0DB48446B04F0450085
:104D200000B103E0281EA5F10105F5D100BF15B1C2
:104D300004F0040028B10326042006F0CAFD304622
:104D400070BD04F0400018B10026402006F0C1FDFF
:104D50003046F5E770B500254FF4803404E080203C
:104D600006F0ADFD00B103E0201EA4F10104F6D170
:104D700000BF0CB9032070BD40F2FF5006F0A9FD42
:104D80002846F8E72DE9F0470027002400260025F3
:104D9000A046A146B220BE490875002008604860C0
:104DA0008860C8600861084606F0D2FC032006F05F
:104DB000EFFC012006F0E9FC00BF12E00020B14941
:104DC000086048608860C8604FF4806008610846E9
:104DD00006F0FEFCFFF7BEFF044604B903E0781CB2
:104DE000C7B24A2FEADB00BF14B12046BDE8F08706
:104DF0004FF4D570A34908600820486040208860BF
:104E00000020C8604FF480600861084606F0E0FCAE
:104E1000FFF77DFF044624B90120984908704FF040
:104E2000804900209749086037204860402088600A
:104E30000020C8604FF480600861084606F0C8FC96
:104E40003720FFF723FB0446002C4BD134E0002031
:104E50008C49086037204860402088600020C86086
:104E60004FF480600861084606F0B2FC3720FFF777
:104E70000DFB04460CB12046B8E7864849EA00001D
:104E80008049086029204860402088600020C86070
:104E90004FF480600861084606F09AFCFFF71EFF99
:104EA00004460CB12046A1E777484669012080EA14
:104EB000D67080F001086D1CB8F1000F03D14FF6D9
:104EC000FF708542C3D34FF6FF70854202D31B2487
:104ED00020468BE706F08040061E32D0022067494C
:104EE00008702EE01CE06C486649086001204860AC
:104EF000402088600020C8604FF480600861084648
:104F000006F066FCFFF7EAFE04460CB120466DE7AA
:104F10005D484669012080EAD67080F001086D1C6A
:104F2000B8F1000F03D14FF6FF708542DBD34FF687
:104F3000FF70854202D31B24204657E703204F49C8
:104F40000870204652E77CB500250024012130205E
:104F500004F0CAFF012140F2024004F0B8FF4FF410
:104F6000F850ADF8000018208DF8030003208DF8EC
:104F700002006946494804F0FBFC0420ADF800003B
:104F800018208DF8030003208DF80200694644487C
:104F900004F0EEFC8020ADF8000048208DF80300FE
:104FA00003208DF8020069463D4804F0E1FC06F05C
:104FB000C1FB31208DF8040000208DF805008DF82C
:104FC000060001208DF8070001A804F002F9FFF7A0
:104FD000D9FE044614B9FFF7D9FD04461CB931487F
:104FE000FFF7D5FB044634B92E49B1F85410080434
:104FF000FFF7B8FB04461CB90120FFF784FB044609
:105000001CB11E480078032812D1264890F856009B
:1050100020B1244890F85600012801D10A2500E06B
:1050200004252846FFF72AFA0020FFF71DFA044658
:1050300020467CBD10B5002006F0AAFB002010BD64
:1050400070B58CB006460C4615460121022004F0CE
:105050003EFF154806F044FA0021134806F00DFB08
:1050600009488030019002960395A0080490002022
:105070000590802006908000079017E01C0000201B
:105080002000002070160020008001409C160020A7
:1050900058160020000010800080FF8000100140A2
:1050A00000140140C0160020440402408000089013
:1050B000002009904FF400500A9000200B9001A9A5
:1050C000FA4806F0AFFA0021F84806F0D6FA0CB01C
:1050D00070BD0146002002E04910421CD0B20129F7
:1050E000FAD170472DE9F84F8146174698460A9C39
:1050F0004FF0000AD3464D464FF0FF36B9F1000F8E
:1051000002D12620BDE8F88F0020E949C862E948AD
:105110000078022805D10402780A40EAC8574FEA0D
:1051200068280020E44988604860401E086001202B
:1051300048610020C8600861084606F072FBDC4840
:10514000406900F0007008B10E20DBE7002C21DD83
:10515000B4F5006F1EDC601E2040D8B92046FFF772
:10516000B8FF0090D54804601020D4494860402022
:1051700088600020C8604FF480600861084606F02F
:1051800027FB1020FFF782F98246BAF1000F03D007
:105190005046B7E72620B5E700980001C649886069
:1051A000084644604FF0FF3008600120486102204B
:1051B000C86000200861084606F033FBBF4807605E
:1051C0001120BE494860402088600020C8604FF42C
:1051D00080600861084606F0FBFA1120FFF756F9D7
:1051E0008246BAF1000F01D050468BE7B4480078F0
:1051F00000285AD103F024FF18E04FF4004006F0D5
:105200005EFB78B14FF0000B06E0A94880300068E3
:1052100045F82B000BF1010BBBF1080FF5D320353E
:10522000A84E03E00EB904206CE7761EA048406B40
:1052300040F22A6108400028DFD0082006F03FFB3A
:1052400020B1082006F045FB04205BE7022006F0B1
:1052500036FB20B1022006F03CFB022052E7202062
:1052600006F02DFB20B1202006F033FB062049E795
:105270004FF4007006F023FB28B14FF4007006F0E5
:1052800028FB07203EE703E006F0EDFA28602D1D1D
:105290004FF4001006F013FB0028F5D103F0D2FE06
:1052A00040F2FF5006F015FB32E0854800780128F7
:1052B0002ED1002221464846FFF7C2FE0020824937
:1052C000087082490870824908707948C06B40F2C2
:1052D0002A3108437649C863012006F076FA00E0D7
:1052E000761E72484438006800F4005038B9784897
:1052F000007820B97448007808B9002EF0D10EB9B2
:105300000420FFE67048007810B16F4890F800A0C4
:105310005046F7E62DE9FF5F17469846DDE90E4651
:105320004FF00009CA464FF0FF356A4900980860FF
:1053300000205F49C8625F480078022805D1040256
:10534000780A40EAC8574FEA682800205A4988601E
:105350004860401E0860012048610020C860086164
:10536000084606F05EFA5248406900F0007018B135
:105370000E2004B0BDE8F09F002C21DDB4F5006FD5
:105380001EDC601E2040D8B92046FFF7A2FE8346EF
:105390004A48046010204949486040208860002045
:1053A000C8604FF480600861084606F011FA1020CA
:1053B000FFF76CF88146B9F1000F03D04846D8E7F3
:1053C0002620D6E7012E70D906FB04F0B0F1007F4D
:1053D00001D32620CDE74FEA0B103749886006FB42
:1053E00004F048604FF0FF3008600120486102205F
:1053F000C86000200861084606F013FA2F480760CD
:1054000012202E494860402088600020C8604FF478
:1054100080600861084606F0DBF91220FFF736F8D5
:105420008146B9F1000F01D04846A2E72448007830
:1054300000287DD103F004FE1EE04FF4004006F08A
:105440003EFAA8B14FF0000A08E019488030006821
:105450002049096841F82A000AF1010ABAF1080F47
:10546000F3D31C48006820301A490860154D03E04A
:105470000DB904207DE76D1E0D48406B40F22A31C6
:1054800008400028D9D0082006F019FA20B10820D9
:1054900006F01FFA04206CE7022006F010FAD8B1DB
:1054A000022006F016FA022063E7A4E0440402405A
:1054B000008001401C00002084160020701600208F
:1054C00024000020FFFF7F00260000202500002090
:1054D0002700002028000020202006F0F0F920B14D
:1054E000202006F0F6F9062043E74FF4007006F09E
:1054F000E6F928B14FF4007006F0EBF9072038E721
:1055000009E006F0B0F9FA4909680860F84800684F
:10551000001DF74908604FF4001006F0D0F900288C
:10552000EFD14FF4807006F0CAF920B3F14800E0E3
:1055300028E0007838B1EF480078012803D0ED4822
:105540000078022817D10020EB4908600C20486041
:10555000402088600020C8604FF4806008610846E1
:1055600006F036F90C20FEF791FF8146B9F1000FE5
:1055700001D04846FDE603F065FD40F2FF5006F01D
:10558000A8F938E0DD480078012834D106FB04F1A1
:1055900000220098FFF754FD0020D949087001202F
:1055A000D84908700020D8490870D848C06B40F22C
:1055B0002A310843D549C8630846C06A40F008004C
:1055C000C86200E06D1ED248006800F4005008B9BF
:1055D000002DF7D10DB90420CBE600BFCA480078F2
:1055E00018B9C74800780028F8D0C548007810B12D
:1055F000C34890F800904846BBE61CB5044600201E
:1056000001900090C34800880004BB4908600D2049
:105610004860402088600020C8604FF480600861C6
:10562000084606F0D5F8B948406B009002E0B7484C
:10563000406B0090009800F045000028F7D0012052
:1056400006F03DF920B1012006F043F901201CBD10
:10565000042006F034F920B1042006F03AF90320C2
:10566000F5E7AA4800690D2801D01020EFE740F2C5
:10567000FF5006F02EF9A548406901900198C0F34B
:10568000432020700020E2E72DE9FF5F86B0174637
:105690009846149D00260020059004900024814621
:1056A0000390824602900195DDF818B0DDF818B03D
:1056B000BBF1000F03D126200AB0BDE8F09F002007
:1056C0009249C862944988604860401E0860012081
:1056D00048610020C8600861084606F0A2F88B48BF
:1056E000406900F0007008B10E20E5E781480078BD
:1056F000022805D10502780A40EAC8574FEA68280F
:10570000002D1FDDB5F5006F1CDC681E2840C8B9F0
:105710002846FFF7DEFC05907748056010207649A3
:105720004860402088600020C8604FF480600861B5
:10573000084606F04DF81020FEF7A8FE06461EB1FA
:105740003046B9E72620B7E77248008800046A4966
:1057500008600D204860402088600020C8604FF439
:1057600080600861084606F033F80D20FEF78EFED3
:1057700006460EB130469FE76448406903904FF0FB
:10578000FF341BE0641E6348008800045A49086027
:105790000D204860402088600020C8604FF4806081
:1057A0000861084606F014F80D20FEF76FFE064665
:1057B0000EB1304680E7554840690390039800F4E5
:1057C000807008B9002CDDD10CB9292074E74A4853
:1057D0000760182048494860402088600020C86061
:1057E0004FF480600861084605F0F2FF1820FEF7CC
:1057F0004DFE06460EB130465EE700204149087076
:105800000598000144498860084645604FF0FF3024
:105810000860012048610020C8600861084606F061
:1058200000F84FF0FF343548007800285FD103F0CE
:1058300007FC43E04FF4804006F041F8C8B30198FC
:10584000A0EB0900202821D20198A0EB090000F06C
:10585000030020B90198A0EB0900800804E001983A
:10586000A0EB09008008401C02904FF0000A09E0FC
:10587000DBF8000005F0FBFF0AF1010A0BF1040B55
:1058800009F1040902988245F2D30FE04FF0000AB3
:1058900005E05BF82A0005F0EAFF0AF1010ABAF117
:1058A000080FF6D30BF1200B09F120096FF04044EB
:1058B00004E0FFE70CB90420FEE6641E1348406BC9
:1058C00040F21A6108400028B4D0082005F0F7FF24
:1058D00020B1082005F0FDFF0420EDE6022005F0D0
:1058E000EEFFD8B1022005F0F4FF0220E4E630E03C
:1058F000280000201C00002070160020240000203A
:105900002600002025000020270000200080014004
:10591000000402402000002084160020102005F022
:10592000CEFF20B1102005F0D4FF0520C4E64FF4CF
:10593000007005F0C4FF28B14FF4007005F0C9FFF6
:105940000720B9E603F07EFB40F2FF50FC49886374
:105950003EE0FC48007801283AD1102229460698FA
:10596000FFF76EFB0020F8490870F8490870F84905
:105970000870F348C06B40F21A310843F049C8631D
:105980000846C06A40F00800C86200E0641EF148A2
:10599000006800F4005008B9002CF7D11CB9FFF7DB
:1059A000D2FA042088E64FF0FF3400E0641EE84895
:1059B000007820B9E448007808B9002CF6D10CB979
:1059C000042079E6E048007810B1DF48007873E6FB
:1059D00040F2FF5005F07DFF04A8FFF70EFE0646DB
:1059E00003E004A8FFF709FE06463EB99DF8100043
:1059F0000728F6D09DF810000628F2D030465BE666
:105A00002DE9FF5F84B0DDE91247002600200390F6
:105A10000290002580468146019007FB04FBDDF8DB
:105A200010A0DDF810A0BAF1000F03D1262008B0B5
:105A3000BDE8F09F0020C249C862C749886048603D
:105A4000401E0860012048610020C86008610846C7
:105A500005F0E7FEBA48406900F0007008B10E207A
:105A6000E5E7BE480078022808D10402DDE9060116
:105A7000400A40EAC1504912CDE90601002C1FDD61
:105A8000B4F5006F1CDC601E2040C8B92046FFF74B
:105A900020FB0390B24804601020B14948604020C8
:105AA00088600020C8604FF480600861084605F0F7
:105AB0008FFE1020FEF7EAFC06461EB13046B6E720
:105AC0002620B4E7012F6FD907FB04F0B0F1007F67
:105AD00001D32620ABE7A148007838B19F48007871
